:100000000C942A000C9447000C9447000C94470071
:100010000C9447000C9447000C9447000C94470044
:100020000C9447000C9447000C9447000C94470034
:100030000C9447000C9447000C9447000C94470024
:100040000C9447000C9447000C9447000C94470014
:100050000C94470011241FBECFE5D8E0DEBFCDBF12
:1000600010E0A0E6B0E0E8ECFCE002C005900D92E4
:10007000A03BB107D9F720E0A0EBB0E001C01D9292
:10008000AE3BB207E1F70E94A5020C9462060C9405
:10009000000011B880E280B9089594EA96BF06B6D0
:1000A00007FEFDCF91B1987F983071F483B984E851
:1000B00086BF06B607FEFDCF81B1887F883131F05B
:1000C000803231F482E0089580E0089581E008955F
:1000D00083E0089594EA96BF06B607FEFDCF91B17E
:1000E000987F903171F483B984E886BF06B607FE25
:1000F000FDCF81B1887F803431F0803231F482E0ED
:10010000089580E0089581E0089583E0089584E9EA
:1001100086BF06B604FCFDCF089583B984E886BF88
:1001200006B607FEFDCF81B1887F883221F080338B
:1001300021F481E0089580E0089582E0089584EC40
:1001400086BF06B607FEFDCF83B190E0089584E830
:1001500086BF06B607FEFDCF83B190E0089588B351
:10016000846088BB82E08A95F1F700C088B38B7FFA
:1001700088BB0895CF93C82F662321F088B3816090
:1001800088BB03C088B38E7F88BB88B38D7F88BB54
:1001900087B3886087BB87B3806187BB87B3806282
:1001A00087BB87B3806487BB88B38F7B88BB88B3EA
:1001B0008F7D88BB88B38F7E88BB88B3877F88BBE1
:1001C000CC231CF488B3806488BBC6FF03C088B30B
:1001D000806288BBC5FF03C088B3806188BBC4FF51
:1001E00003C088B3886088BB0E94AF0088B38F7B50
:1001F00088BB88B38F7D88BB88B38F7E88BB88B36C
:10020000877F88BBC3FF03C088B3806488BBC2FFFD
:1002100003C088B3806288BBC1FF03C088B380611C
:1002200088BBC0FF03C088B3886088BB0E94AF0052
:1002300088B3886088BB88B3806188BB88B38062DC
:1002400088BB88B3806488BBCF910895882321F050
:1002500088B3816088BB03C088B38E7F88BB88B3B6
:10026000826088BB87B3877F87BB87B38F7E87BB5E
:1002700087B38F7D87BB87B38F7B87BB88B3846051
:1002800088BB82E08A95F1F700C0B39902C080E094
:1002900001C080E1B4998062B5998064B6998068A4
:1002A00098B39B7F98BB92E09A95F1F700C098B302
:1002B000946098BB92E09A95F1F700C0B399816081
:1002C000B4998260B5998460B699886098B39B7F31
:1002D00098BB089580E00E9426018823DCF38AE021
:1002E0008A95F1F700C080E00E9426010895CF931F
:1002F000C82F0E946A0160E08C2F0E94BA00CF9143
:100300000895611104C080580E94770108956130FA
:1003100021F480540E9477010895623021F48C56B4
:100320000E94770108958C520E947701089581E020
:100330000E9477010895CF93C82F0E946A01CA30A6
:10034000A1F4843148F090EC980F943138F0845146
:100350008C3230F484E505C080E403C084E101C040
:1003600080E080580E94770104C061E08C2F0E94D9
:10037000BA00CF910895CF93DF93FC0103C00E9490
:100380009B01FE01EF01219680818111F8CFDF9161
:10039000CF910895CF93C82F87B3816087BB87B370
:1003A000826087BB87B3846087BB87B3886087BB65
:1003B00087B3806187BB87B3806287BB87B3806464
:1003C00087BB8FEF9CE70197F1F700C0000088B36F
:1003D000806188BB88B3886088BB0E94AF008FE0D3
:1003E00097E20197F1F700C000000E94AF009AEA7F
:1003F0009A95F1F700C00E94AF008AEA8A95F1F75A
:1004000000C088B3877F88BB0E94AF009AEA9A95A4
:10041000F1F700C088E20E94770188E00E9477012E
:100420000E94970186E00E9477018C2F0E9477013D
:10043000CF91089585FF02C081E0089580E008957E
:10044000CF93C82F80ED0E944D008C2F0E948D000D
:1004500081ED0E946A000E949F009093B3008093F8
:10046000B2000E949F009093B5008093B4000E9458
:10047000A7009093B7008093B6000E948700CF91A9
:100480000895CF93C82F80ED0E944D008C2F0E94BD
:100490008D0081ED0E946A000E949F009093BB0036
:1004A0008093BA000E949F009093BD008093BC008F
:1004B0000E949F009093B1008093B0000E94A7001B
:1004C0009093B9008093B8000E948700CF9108955F
:1004D0001F93CF93DF93D62F142FC82FC22B80EDFD
:1004E0000E944D0080E00E948D00812F0E948D00AF
:1004F0008D2F0E948D008C2F0E948D000E948700FE
:10050000DF91CF911F9108950F931F93CF93DF93A6
:10051000082F162FD42FC22F80ED0E944D0083E0AC
:100520000E948D00802F0E948D00812F0E948D00DF
:100530008D2F0E948D008C2F0E948D000E948700BD
:10054000DF91CF911F910F910895CF93DF93CDB796
:10055000DEB7A2970FB6F894DEBF0FBECDBF8EE018
:10056000E0E6F0E0DE01559601900D928A95E1F704
:100570008CE00E94CA010E94490020E440E069E545
:1005800081E10E94680221E241E061E081E00E9495
:10059000840280E00E9420028091B6009091B70012
:1005A00086FF45C02091B3002F932091B2002F9376
:1005B0002091B5002F932091B4002F938F7199272C
:1005C0009F938F938EE690E09F938F93CE01019639
:1005D0009F938F930E9478038091B6000E941A0225
:1005E0000FB6F894DEBF0FBECDBF882361F0FE01C9
:1005F000319601900020E9F7319780E59DE49183E1
:10060000808312820BC0FE01319601900020E9F731
:10061000319781E49DE491838083128260E080E0E1
:100620000E948101CE0101960E94BB0127C020914A
:10063000B3002F932091B2002F932091B5002F93F8
:100640002091B4002F938F7199279F938F938EE6FB
:1006500090E09F938F938E010F5F1F4F1F930F9317
:100660000E94780360E080E00E948101C8010E943E
:10067000BB010FB6F894DEBF0FBECDBF83E00E9472
:100680004102E091BA00F091BB003197EE0FFF1FDD
:100690008E010F5F1F4FE00FF11F85898F938489B3
:1006A0008F938091B9008F938091B8008F93809140
:1006B000B1008F938091B0008F938091BD008F9394
:1006C0008091BC008F938FE790E09F938F931F934F
:1006D0000F930E94780361E080E00E948101C801CD
:1006E0000E94BB010FB6F894DEBF0FBECDBF51CF45
:1006F000AEE0B0E0EEE7F3E00C9439060D891E8918
:1007000086E08C831A8309838FEF9FE79E838D8316
:10071000AE01475E5F4F6F89788DCE0101960E94D2
:100720009A03EF81F885E00FF11F10822E96E4E026
:100730000C945506ABE0B0E0E0EAF3E00C942B0635
:100740006C017B018A01FC0117821682838181FF83
:10075000CCC1CE0101963C01F6019381F70193FDD6
:10076000859193FF81917F01882309F4BAC1853275
:1007700039F493FD859193FF81917F01853229F4AE
:10078000B60190E00E949105E7CF912C212C312CED
:10079000FFE1F315D8F08B3279F038F4803279F03C
:1007A0008332A1F4232D20611DC08D3261F080338E
:1007B00069F4232D216016C0832D8260382EE32D2D
:1007C000E4603E2E2AC0F32DF8601DC037FC2DC01A
:1007D00020ED280F2A3040F08E32B9F436FC81C16A
:1007E000232D2064322E19C036FE06C08AE0989E62
:1007F000200D1124922E11C0EAE02E9E200D11240E
:10080000222EF32DF0623F2E08C08C3621F4832D6A
:100810008068382E02C0883641F4F70193FD859137
:1008200093FF81917F018111B3CF982F9F7D9554C4
:10083000933028F40C5F1F4F9FE399830DC08336DC
:1008400031F0833771F0833509F059C021C0F801C8
:10085000808189830E5F1F4F88248394912C5301DC
:1008600013C02801F2E04F0E511CF801A080B180A6
:1008700036FE03C0692D70E002C06FEF7FEFC50147
:100880000E9486054C018201F32DFF773F2E16C092
:10089000280122E0420E511CF801A080B18036FEF2
:1008A00003C0692D70E002C06FEF7FEFC5010E94A9
:1008B0007B054C01F32DF0683F2E820133FC1BC0F9
:1008C000822D90E088169906B0F4B60180E290E09F
:1008D0000E9491052A94F4CFF50137FC859137FEEB
:1008E00081915F01B60190E00E94910521102A9448
:1008F00021E0821A91088114910471F7E8C08436CE
:1009000011F0893641F5F80137FE07C06081718129
:10091000828193810C5F1F4F08C060817181072E17
:10092000000C880B990B0E5F1F4FF32DFF763F2EA7
:1009300097FF09C090958095709561957F4F8F4F77
:100940009F4FF0683F2E2AE030E0A3010E94CD05C2
:10095000882E861845C0853731F4232D2F7EB22E80
:100960002AE030E025C0932D997FB92E8F36C1F053
:1009700018F4883579F0B5C0803719F0883721F040
:10098000B0C0E92FE061BE2EB4FE0DC0FB2DF460B7
:10099000BF2E09C034FE0AC0292F2660B22E06C021
:1009A00028E030E005C020E130E002C020E132E084
:1009B000F801B7FE07C060817181828193810C5F6D
:1009C0001F4F06C06081718180E090E00E5F1F4F75
:1009D000A3010E94CD05882E8618FB2DFF773F2EA0
:1009E00036FE0DC0232D2E7FA22E891458F434FE1E
:1009F0000BC032FC09C0832D8E7EA82E05C0B82CFA
:100A0000A32C03C0B82C01C0B92CA4FE0FC0FE015A
:100A1000E80DF11D8081803321F49A2D997EA92E55
:100A200009C0A2FE06C0B394B39404C08A2D867890
:100A300009F0B394A3FC11C0A0FE06C0B21488F460
:100A4000280C922C9B180EC0B21460F4B60180E200
:100A500090E00E949105B394F7CFB21418F42B18CC
:100A600002C0982C212CA4FE10C0B60180E390E0B7
:100A70000E949105A2FE17C0A1FC03C088E790E088
:100A800002C088E590E0B6010CC08A2D867859F046
:100A9000A1FE02C08BE201C080E2A7FC8DE2B6019C
:100AA00090E00E949105891438F4B60180E390E04B
:100AB0000E9491059A94F7CF8A94F301E80DF11DF5
:100AC0008081B60190E00E9491058110F5CF22202F
:100AD00009F442CEB60180E290E00E9491052A948A
:100AE000F6CFF6018681978102C08FEF9FEF2B969C
:100AF000E2E10C944706FC01059061507040011042
:100B0000D8F7809590958E0F9F1F0895FC01615036
:100B1000704001900110D8F7809590958E0F9F1F1F
:100B200008950F931F93CF93DF93FB01238121FD42
:100B300003C08FEF9FEF2CC022FF16C04681578164
:100B4000248135814217530744F4A081B1819D016E
:100B50002F5F3F4F318320838C93268137812F5F16
:100B60003F4F3783268314C08B01EC01FB010084C7
:100B7000F185E02D0995892BE1F6D80116968D9126
:100B80009C911797019617969C938E931697CE017A
:100B9000DF91CF911F910F910895FA01AA27283074
:100BA00051F1203181F1E8946F936E7F6E5F7F4F3A
:100BB0008F4F9F4FAF4FB1E03ED0B4E03CD0670FB6
:100BC000781F891F9A1FA11D680F791F8A1F911D09
:100BD000A11D6A0F711D811D911DA11D20D009F459
:100BE00068943F912AE0269F11243019305D31939B
:100BF000DEF6CF010895462F4770405D4193B3E084
:100C00000FD0C9F7F6CF462F4F70405D4A3318F02A
:100C1000495D31FD4052419302D0A9F7EACFB4E0DB
:100C2000A6959795879577956795BA95C9F7009793
:100C30006105710508959B01AC010A2E0694579534
:100C4000479537952795BA95C9F7620F731F841F8B
:100C5000951FA01D08952F923F924F925F926F9221
:100C60007F928F929F92AF92BF92CF92DF92EF923C
:100C7000FF920F931F93CF93DF93CDB7DEB7CA1BBD
:100C8000DB0B0FB6F894DEBF0FBECDBF09942A88E8
:100C9000398848885F846E847D848C849B84AA8490
:100CA000B984C884DF80EE80FD800C811B81AA811D
:100CB000B981CE0FD11D0FB6F894DEBF0FBECDBFE8
:080CC000ED010895F894FFCF47
:100CC800930097009B009F00A300A700AB0025306E
:100CD80032783A253032783A25303278202000258B
:100CE8003032782F253032782F253032782025334E
:100CF80073200053756E004D6F6E00547565005774
:100D08006564005468750046726900536174000098
:00000001FF
